:030000000201EF0B
:1001EF0078FFE4F6D8FD9000007F007E01E4F0A3D5
:0A01FF00DFFCDEFA758120020244E5
:1003150012034E1202C41202F7E50F64477004D2AD
:07032500A780F6C2A780F2D9
:0300030002035D98
:01035D00326D
:0300130002035E87
:01035E00326C
:030053000202891D
:10028900C0E0C0F0C083C082C0D075D000C000C03B
:1002990001C002C003C004C005C006C007120100A6
:1002A900D007D006D005D004D003D002D001D000A9
:0B02B900D0D0D082D083D0F0D0E03253
:03000B0002032CC1
:10032C00C0E0758A48758CFE0515E515700205143C
:03033C00D0E032DC
:03001B0002035F7E
:01035F00326B
:03002B0002035A73
:03035A00C2CF32DD
:1002F7005391374392C853A1FC43A203E4F5BA755F
:0E030700BC0C75C63043A80543A908D2AF222E
:0C034E00E4F591F59243A18053A27F22B8
:1002C400758E07438901758A48758CFEC28CD2A944
:1002D400D28C438920758B10758D10C28ED2ABD20F
:1002E4008EE4F5C9F5C875CB4475CA80C2CAD2ADCF
:0302F400D2CA2249
:0E033F00040D00000000010800010900C1804B
:100100000513AF137E00EF64017004F514F515EFCD
:1001100064024E7052D3E515945EE51494015018B4
:10012000C3E5159445E5149401400DE4F508C200BB
:10013000F514F515F50CF511D3E5159425E5149492
:10014000015024C3E515940CE514940140190511E0
:10015000D3E5119409748094804003750F17E4F57A
:1001600014F515F513D2003000030201EED3E515A6
:10017000941FE51494005023C3E5159419E51494D5
:10018000004018740D2508F8C000E6C313D000F62F
:10019000740D2508F8E6547FF60509D3E515943B60
:1001A000E51494005023C3E5159435E514940040FC
:1001B00018740D2508F8C000E6C313D000F6740DBE
:1001C0002508F8E64480F60509E4F514F515E50977
:1001D0006408701AF5090508D3E50894037480943F
:0E01E00080400BE4F508F513D200F514F51578
:0101EE0022EE
:10020900020315E493A3F8E493A34003F68001F2F3
:1002190008DFF48029E493A3F85407240CC8C333F6
:10022900C4540F4420C8834004F456800146F6DFC5
:10023900E4800B010204081020408090033FE47E13
:10024900019360BCA3FF543F30E509541FFEE493BA
:10025900A360010ECF54C025E060A840B8E493A381
:10026900FAE493A3F8E493A3C8C582C8CAC583CAAC
:10027900F0A3C8C582C8CAC583CADFE9DEE780BE64
:01034D0000AF
:00000001FF
