:09042800011B00011C00011D0074
:100378001204E7300010E51B1424F750058000E450
:10038800F51B051BC200300118E51C24FE24F8509B
:100398000C240970051204C78003E4F51C051CC26F
:1003A800013002CFE51D1424FC50058000E4F51D42
:0603B800051DC20280BD1C
:10043100020C0000020E000002080000020A000087
:06044100C100C101C1026F
:03000300020532C1
:010532003296
:03000B0002025C92
:10025C00C0E0C0D075D000C006E58A2480F58A7550
:10026C008CFD050BE50B7002050A050DE50D700202
:10027C00050CAE0CD39418EE648094804008D20028
:10028C00750C00750D00050FE50F7002050EAE0E16
:10029C00D394F9EE648094804008D201750E0075F9
:1002AC000F000509E50970020508AE08D394C3EEEA
:1002BC00648094894008D202750800750900D00644
:0502CC00D0D0D0E032AB
:03001300020533B0
:010533003295
:03001B00020534A7
:010534003294
:030023000205359E
:010535003293
:03002B0002053695
:010536003292
:030033000205378C
:010537003291
:03003B0002053883
:010538003290
:030043000205397A
:01053900328F
:03004B0002053A71
:01053A00328E
:030053000203BEE7
:1003BE00C0E0C0F0C083C082C0D075D000C000C005
:1003CE0001C002C003C004C005C006C00712010070
:1003DE00D007D006D005D004D003D002D001D00073
:0B03EE00D0D0D082D083D0F0D0E0321D
:1004E7001205131205021203F912052B751A117B57
:0B04F700117D117F11120456D2AF22BC
:10050200438901438E01758A80758CFDD2A9D28CF4
:0105120022C6
:0E044700041300000000011000011100C18329
:07052B0043C60443A90822A6
:10010000D3E50B945EE50A648094815012C3E50B3D
:100110009445E50A648094814005E4F510C20330FB
:100120000306E4F50AF50B223003030201C1D3E50F
:100130000B941FE50A648094805026C3E50B941944
:10014000E50A64809480401974132510F8C000E615
:10015000A2E713D000F674132510F8E6547FF605D5
:1001600011D3E50B943BE50A648094805026C3E5E7
:100170000B9435E50A64809480401974132510F8B7
:10018000C000E6A2E713D000F674132510F8E64489
:1001900080F60511E4F50AF50BAF11EF3395E0FE9B
:1001A000EF64084E701BF5110510AF10EF3395E0AA
:1001B000FED3EF9403EE648094804005E4F510D202
:0101C000033B
:0101C100221B
:1002D100E51512047D031B0703250903201502F808
:1002E10019031140031643030C4402FD4503024662
:1002F1000307470000032AE4F512803075120180DC
:100301002B75120280267512038021751204801C40
:1003110075120580177512068012751207800D750A
:0F032100120880087512098003751211AF12229D
:1005130043910E53A1FD43A1F153A1FB43A2042236
:1004C7001202D1EFFD3395E0FCED64034C7003D2CB
:0F04D700A722ED64044C7003D2A522C2A5C2A7D0
:0104E60022F3
:1004A3003F065B4F666D7D077F6F777C395E7971A1
:1004B3000040BF86DBCFEBEDFD87FFEFF7FC99DE56
:0404C300F9F100400B
:10033000EF3395E0FE74A32FF58274043EF583E459
:0703400093FF120347E4FFE5
:10034700E4FEEEFD3395E0FCC3ED9408EC64809485
:10035700805019C292EF30E004D2918002C291001E
:100367000000D292EFA2E713FF0E80D6C292C2918D
:010377002263
:08052300C293120347D2932298
:1003F9007F8A1205237F40120523C2937FC012030F
:1004090047E4FBEBFF3395E0FEC3EF9410EE648005
:0E04190094805008E4FF1203470B80E7D29353
:0104270022B2
:10045600A907AA057F40120523C2937FC01203474E
:10046600AF01120330AF02120330AF03120330AFF5
:070476001A120330D2932299
:030000000201C238
:1001C20078FFE4F6D8FD9000007F007E01E4F0A302
:0A01D200DFFCDEFA7581200202173F
:1001DC00020378E493A3F8E493A34003F68001F2BE
:1001EC0008DFF48029E493A3F85407240CC8C33324
:1001FC00C4540F4420C8834004F456800146F6DFF3
:10020C00E4800B0102040810204080900428E47E56
:10021C00019360BCA3FF543F30E509541FFEE493E7
:10022C00A360010ECF54C025E060A840B8E493A3AE
:10023C00FAE493A3F8E493A3C8C582C8CAC583CAD9
:10024C00F0A3C8C582C8CAC583CADFE9DEE780BE91
:0104550000A6
:10047D00D083D082F8E4937012740193700DA3A30E
:10048D0093F8740193F5828883E473740293686022
:06049D00EFA3A3A380DF22
:00000001FF
